:10000000020089802A8C228D2330CF02800280F961
:10001000C2CFD290800CE52324FFF523E52234FFE4
:10002000F522E52345227002800280EAC2902280F8
:10003000D480407520087521CA75800075A00075B0
:1000400090FE75CB0B75CADC53C8FCD2ADD2AFD2D3
:10005000CAAC20AD21120003E580B4010875200868
:100060007521CA800BE5A0B4010675200E7521A686
:1000700080DF2280BEE4F5D0758124F520F521F5DE
:0C00800022F5231200310200000200757E
:00000001FF
