:1000000002007F806475253375900075221075237A
:1000100000E4F520F521E5212400E5206480347C0E
:100020005002800280028040E5258522838523825C
:10003000F0852283852382E0F524E524B52504801C
:1000400000800575900180200523E52370020522BC
:100050000521E52170020520E5212400E5206480CA
:10006000347C5002800280C022809AE4F5D07581F1
:100070002678207A06F608DAFC1200030200000255
:02008000006B13
:00000001FF
