:1000000002009D80338C278D288013758CD8758ACB
:10001000F0D28C208D02800280F9C28DC28CAC2778
:10002000E528FD152870021527ED24FFEC648034C7
:100030007F4002800280D42280CB804B758901757D
:100040002200752349752480752502752634852282
:10005000907C007D64120003792387907C017D9061
:10006000120003792487907C007DFA120003792521
:1000700087907C007D96120003792687907C027D14
:10008000BC12000380C82280B3E4F5D075812978C2
:10009000207A09F608DAFC12003A02000002008910
:00000001FF
