:10000000020058898288838B00EC4D6036E4E0F66C
:1000100008A31DBDFFF31C80F0B800118B00EC4D50
:100020006021E7F609081DBDFFF41C80F189828874
:10003000838B00EC4D600CE493F608A31DBDFFF329
:100040001C80F022E4F5D075813978207A19F60801
:0B005000DAFC12011102000002004463
:10010000B1A0B2B3A9B9ABA000ABAFB9ABA000200E
:10011000000202E37526007527CF780179007A0086
:100120007B287D097C00120019780179097A007B0F
:10013000317D067C00120019753700753800800289
:1001400005377428A937780029F9E770F38002058C
:10015000387431A938780029F9E770F375800C7587
:10016000A00175A00075803875A00175A00075808C
:100170008875A00175A000E4F520F521801574288C
:100180002521F9878075A00375A0020521E521705E
:10019000020520A9377800E8B52006E9B5210280DC
:1001A000065002800280D7E4F522F52302025BA903
:1001B000387800E8B52206E9B523028004500480AF
:1001C00000804185278075A00175A000E4F520F529
:1001D00021801574312521F9878075A00375A0024F
:1001E0000521E52170020520E5232401FDE52234E7
:1001F00000FCECB52006EDB521028006500280021D
:1002000080D1804385278075A00175A000E4F5208A
:10021000F521801574312521F9878075A00375A01B
:10022000020521E52170020520A9387800E8B520F3
:1002300006E9B5210280065002800280D7740FF5CE
:100240008075A00375A002E52724FFF527E5263475
:10025000FFF5260523E52370020522E523B40F07E9
:10026000E522B4000280030201AF75240085382521
:1002700080597580C075A00175A000A9387800E983
:10028000C39525F521E89524F520801574312521A5
:10029000F9878075A00375A0020521E5217002058C
:1002A00020A9387800E8B52006E9B521028006507B
:1002B00002800280D7740FF58075A00375A002E557
:1002C0002524FFF525E52434FFF524E525B4FF07B3
:1002D000E524B4FF02800280997526007527CF02BD
:0602E00001A72202011437
:00000001FF
