:100000000200F10200DA780179007A007B2A7D0B88
:100010007C00120121793487A075B000E4F520F549
:1000200021752400752502E4F526F527E4F528F569
:1000300029742A2521F987A00521E52170020520D0
:10004000E52124F6E52034FF500280028005E4F526
:1000500020F521801B30B0028002800C75260075CF
:100060002701793387A080160529E5297002052824
:10007000E52924B5E52834FF5002800280D7804C62
:100080008043E52524F6E52434FF400280028011F8
:100090007409C39525FD74009524FC742A2DF987F5
:1000A000A0E5252402F525E5243400F524E52524E2
:1000B000F5E52434FF50028002800AE4F524F5259A
:1000C000E4F526F52720B002800280B6E527452614
:1000D0007002800280AA02002C22020006E4F5D001
:1000E00075813578207A15F608DAFC1200030200D3
:0400F000000200DD2D
:10010000C0F9A4B0999282F88090FF898288838B8D
:1001100000EC4D6036E4E0F608A31DBDFFF31C8043
:10012000F0B800118B00EC4D6021E7F609081DBD09
:10013000FFF41C80F1898288838B00EC4D600CE415
:0C01400093F608A31DBDFFF31C80F02205
:00000001FF
