:1000000002016C80108D998D24800030990280024D
:1000100080F9C2992280EE801F4387805389BF53A5
:1000200089EF438920758DFDD28E759800D29BC2D1
:100030009CC29DD29ED29F2280DF02015575220074
:100040007523507468852283852382F0746F85221E
:1000500083852382A3F07473852283852382A3A3DF
:10006000F07470852283852382A3A3A3F07469852D
:100070002283852382A3A3A3A3F07474852283859E
:100080002382A3A3A3A3A3F0E5232406F582E522FC
:100090003400F5837461F0E5232407F582E522340A
:1000A00000F583746CF0E5232408F582E522340022
:1000B000F5837469F0E5232409F582E5223400F51F
:1000C000837473F0E523240AF582E5223400F58376
:1000D0007461F0E523240BF582E5223400F5837486
:1000E00074F0E523240CF582E5223400F58374696D
:1000F000F0E523240DF582E5223400F583746FF0DA
:10010000E523240EF582E5223400F583746EF012A7
:100110000017E4F520F521E52124F1E52064803481
:100120007F5002800280028029E5212523F582E5A7
:10013000203522F583E0FD1200030521E521700240
:100140000520E52124F1E5206480347F50028002FF
:1001500080D780BE2202003DE4F5D075812578204D
:0F0160007A05F608DAFC12003A02000002015894
:00000001FF
