:100000000200E9E5836003E49322A882E622E58307
:100010006004E4938003A882E6F822E5836004E4A8
:10002000938003A882E6F922E5836004E4938003C9
:10003000A882E6FA22E5836004E4938003A882E6BE
:10004000FB22E5836004E4938003A882E6FC22E5BA
:10005000836004E4938003A882E6FD22E5836004C4
:10006000E4938003A882E6FE22E5836004E49380A3
:1000700003A882E6FF22898288838B00EC4D6036DC
:10008000E4E0F608A31DBDFFF31C80F0B800118B5F
:1000900000EC4D6021E7F609081DBDFFF41C80F15E
:1000A000898288838B00EC4D600CE493F608A31DD5
:1000B000BDFFF31C80F022C000C001ED8BF0A4F85E
:1000C000A9F0ED8AF0A429F9EC8BF0A429FAE8FB59
:1000D000D001D00022E4F5D075816C78207A4CF6FE
:0C00E00008DAFC12018E0200000200D5BC
:100100000183017A01710168015F0156014D0147C8
:100110000141018901800177016E0165015C015394
:10012000014A0144013E0186017D0174016B0162B7
:100130000159018CFEFDFBF7EF1E1D1B170F313916
:1001400000203900313800203800313700203700D6
:10015000323600313600203600323500313500208D
:100160003500323400313400203400323300313372
:1001700000203300323200313200203200323100B0
:1001800031310020310032300031300020000203D4
:100190002F752C01752D50780179007A007B2E7D0A
:1001A000347C0012008C780179347A007B627D0502
:1001B0007C0012008C780179397A007B677D057CA0
:1001C0000012008C75800C75A00175A00075803838
:1001D00075A00175A00075808075A00175A000E470
:1001E000F528F529E4F526F527E4F520F521E521A4
:1001F00024FBE52034FF500280028002807C74677B
:100200002521F987B0E4F522F523E52324FBE52237
:1002100034FF500280028002804A74622523F9E78D
:10022000B5902B7C007D05AA22AB231200B7EB25ED
:1002300021FDEA3520FCEDC333FDEC33FC742E2D9B
:10024000F9872A09872B0527E5277002052605234C
:10025000E52370020522E52324FBE52234FF50024A
:10026000800280B60521E52170020520E52124FBEE
:10027000E52034FF500280028084E527B40107E5C1
:1002800026B40002800302032BE52DB52B0AE52CD2
:10029000B52A05800002032BE529B40307E528B43D
:1002A00000028002801975800175A00175A000759B
:1002B000808075A00175A000E4F528F529801CE573
:1002C000294528600280028012796087830987822D
:1002D000120003F58075A00375A002E4F524F5254E
:1002E000E52524FEE52434FF500280028002802DA3
:1002F000E525252BF582E524352AF583120003F543
:100300008075A00375A0020525E52570020524E58A
:100310002524FEE52434FF5002800280D30529E520
:100320002970020528852A2C852B2D0201E4220242
:02033000019139
:00000001FF
